{
  "contractName": "NFTickets",
  "abi": [
    {
      "inputs": [],
      "stateMutability": "nonpayable",
      "type": "constructor"
    },
    {
      "inputs": [
        {
          "internalType": "uint256",
          "name": "",
          "type": "uint256"
        }
      ],
      "name": "events",
      "outputs": [
        {
          "internalType": "uint256",
          "name": "id",
          "type": "uint256"
        },
        {
          "internalType": "string",
          "name": "name",
          "type": "string"
        },
        {
          "internalType": "string",
          "name": "date",
          "type": "string"
        },
        {
          "internalType": "address payable",
          "name": "owner",
          "type": "address"
        },
        {
          "internalType": "uint256",
          "name": "capacity",
          "type": "uint256"
        },
        {
          "internalType": "uint256",
          "name": "attending",
          "type": "uint256"
        },
        {
          "internalType": "uint256",
          "name": "cost",
          "type": "uint256"
        }
      ],
      "stateMutability": "view",
      "type": "function"
    },
    {
      "inputs": [],
      "name": "totalEvents",
      "outputs": [
        {
          "internalType": "uint256",
          "name": "",
          "type": "uint256"
        }
      ],
      "stateMutability": "view",
      "type": "function"
    },
    {
      "inputs": [
        {
          "internalType": "string",
          "name": "_name",
          "type": "string"
        },
        {
          "internalType": "string",
          "name": "_date",
          "type": "string"
        },
        {
          "internalType": "uint256",
          "name": "_capacity",
          "type": "uint256"
        },
        {
          "internalType": "uint256",
          "name": "_cost",
          "type": "uint256"
        }
      ],
      "name": "createEvent",
      "outputs": [],
      "stateMutability": "nonpayable",
      "type": "function"
    }
  ],
  "bytecode": "0x608060405234801561001057600080fd5b506000808190555061087e806100276000396000f3fe608060405234801561001057600080fd5b50600436106100415760003560e01c80630b79143014610046578063ba8706861461007c578063bce062b91461009a575b600080fd5b610060600480360381019061005b91906103ed565b6100b6565b6040516100739796959493929190610503565b60405180910390f35b610084610228565b6040516100919190610580565b60405180910390f35b6100b460048036038101906100af91906106d0565b61022e565b005b60026020528060005260406000206000915090508060000154908060010180546100df9061079e565b80601f016020809104026020016040519081016040528092919081815260200182805461010b9061079e565b80156101585780601f1061012d57610100808354040283529160200191610158565b820191906000526020600020905b81548152906001019060200180831161013b57829003601f168201915b50505050509080600201805461016d9061079e565b80601f01602080910402602001604051908101604052809291908181526020018280546101999061079e565b80156101e65780601f106101bb576101008083540402835291602001916101e6565b820191906000526020600020905b8154815290600101906020018083116101c957829003601f168201915b5050505050908060030160009054906101000a900473ffffffffffffffffffffffffffffffffffffffff16908060040154908060050154908060070154905087565b60005481565b600080815480929190610240906107ff565b9190505550600060026000805481526020019081526020016000209050600054816000018190555084816001019080519060200190610280929190610300565b5083816002019080519060200190610299929190610300565b50338160030160006101000a81548173ffffffffffffffffffffffffffffffffffffffff021916908373ffffffffffffffffffffffffffffffffffffffff160217905550828160040181905550600081600501819055508181600701819055505050505050565b82805461030c9061079e565b90600052602060002090601f01602090048101928261032e5760008555610375565b82601f1061034757805160ff1916838001178555610375565b82800160010185558215610375579182015b82811115610374578251825591602001919060010190610359565b5b5090506103829190610386565b5090565b5b8082111561039f576000816000905550600101610387565b5090565b6000604051905090565b600080fd5b600080fd5b6000819050919050565b6103ca816103b7565b81146103d557600080fd5b50565b6000813590506103e7816103c1565b92915050565b600060208284031215610403576104026103ad565b5b6000610411848285016103d8565b91505092915050565b610423816103b7565b82525050565b600081519050919050565b600082825260208201905092915050565b60005b83811015610463578082015181840152602081019050610448565b83811115610472576000848401525b50505050565b6000601f19601f8301169050919050565b600061049482610429565b61049e8185610434565b93506104ae818560208601610445565b6104b781610478565b840191505092915050565b600073ffffffffffffffffffffffffffffffffffffffff82169050919050565b60006104ed826104c2565b9050919050565b6104fd816104e2565b82525050565b600060e082019050610518600083018a61041a565b818103602083015261052a8189610489565b9050818103604083015261053e8188610489565b905061054d60608301876104f4565b61055a608083018661041a565b61056760a083018561041a565b61057460c083018461041a565b98975050505050505050565b6000602082019050610595600083018461041a565b92915050565b600080fd5b600080fd5b7f4e487b7100000000000000000000000000000000000000000000000000000000600052604160045260246000fd5b6105dd82610478565b810181811067ffffffffffffffff821117156105fc576105fb6105a5565b5b80604052505050565b600061060f6103a3565b905061061b82826105d4565b919050565b600067ffffffffffffffff82111561063b5761063a6105a5565b5b61064482610478565b9050602081019050919050565b82818337600083830152505050565b600061067361066e84610620565b610605565b90508281526020810184848401111561068f5761068e6105a0565b5b61069a848285610651565b509392505050565b600082601f8301126106b7576106b661059b565b5b81356106c7848260208601610660565b91505092915050565b600080600080608085870312156106ea576106e96103ad565b5b600085013567ffffffffffffffff811115610708576107076103b2565b5b610714878288016106a2565b945050602085013567ffffffffffffffff811115610735576107346103b2565b5b610741878288016106a2565b9350506040610752878288016103d8565b9250506060610763878288016103d8565b91505092959194509250565b7f4e487b7100000000000000000000000000000000000000000000000000000000600052602260045260246000fd5b600060028204905060018216806107b657607f821691505b602082108114156107ca576107c961076f565b5b50919050565b7f4e487b7100000000000000000000000000000000000000000000000000000000600052601160045260246000fd5b600061080a826103b7565b91507fffffffffffffffffffffffffffffffffffffffffffffffffffffffffffffffff82141561083d5761083c6107d0565b5b60018201905091905056fea26469706673582212204d5f69c67cea4a69d00a6f8264fa4313ca08ed73c89a46a51e48117b34f0fe1564736f6c634300080a0033",
  "immutableReferences": {},
  "source": "pragma solidity ^0.8.0;\n\ncontract NFTickets {\n  uint public totalEvents;\n  mapping(address => bool) attendees;\n\n  struct Event {\n    uint id;\n    string name;\n    string date;\n    address payable owner;\n    uint capacity;\n    uint attending;\n    mapping(address => bool) attendees;\n    uint cost; // Wei\n  }\n\n  mapping(uint => Event) public events;\n\n  constructor() {\n    totalEvents = 0;\n  }\n\n  function createEvent(string memory _name, string memory _date, uint _capacity, uint _cost) public {\n    totalEvents++;\n    Event storage e = events[totalEvents];\n    e.id=totalEvents;\n    e.name = _name;\n    e.date = _date;\n    e.owner = payable(msg.sender);\n    e.capacity = _capacity;\n    e.attending = 0;\n    e.cost = _cost;\n  }\n\n}",
  "sourcePath": "/Users/rconry/projects/nftickets/src/contracts/NFTickets.sol",
  "compiler": {
    "name": "solc",
    "version": "0.8.10+commit.fc410830.Emscripten.clang"
  },
  "schemaVersion": "3.4.4",
  "updatedAt": "2021-12-23T22:20:06.256Z",
  "devdoc": {
    "kind": "dev",
    "methods": {},
    "version": 1
  },
  "userdoc": {
    "kind": "user",
    "methods": {},
    "version": 1
  }
}